{
  "contractName": "EtherWallet",
  "abi": [
    {
      "inputs": [],
      "stateMutability": "nonpayable",
      "type": "constructor"
    },
    {
      "inputs": [],
      "name": "owner",
      "outputs": [
        {
          "internalType": "address",
          "name": "",
          "type": "address"
        }
      ],
      "stateMutability": "view",
      "type": "function",
      "constant": true
    },
    {
      "inputs": [],
      "name": "deposit",
      "outputs": [],
      "stateMutability": "payable",
      "type": "function",
      "payable": true
    },
    {
      "inputs": [
        {
          "internalType": "address payable",
          "name": "to",
          "type": "address"
        },
        {
          "internalType": "uint256",
          "name": "amount",
          "type": "uint256"
        }
      ],
      "name": "send",
      "outputs": [],
      "stateMutability": "nonpayable",
      "type": "function"
    },
    {
      "inputs": [],
      "name": "balanceOf",
      "outputs": [
        {
          "internalType": "uint256",
          "name": "",
          "type": "uint256"
        }
      ],
      "stateMutability": "view",
      "type": "function",
      "constant": true
    }
  ],
  "bytecode": "0x608060405234801561001057600080fd5b50336000806101000a81548173ffffffffffffffffffffffffffffffffffffffff021916908373ffffffffffffffffffffffffffffffffffffffff1602179055506103bd806100606000396000f3fe60806040526004361061003f5760003560e01c8063722713f7146100445780638da5cb5b1461006f578063d0679d341461009a578063d0e30db0146100c3575b600080fd5b34801561005057600080fd5b506100596100cd565b60405161006691906102b6565b60405180910390f35b34801561007b57600080fd5b506100846100d5565b604051610091919061027b565b60405180910390f35b3480156100a657600080fd5b506100c160048036038101906100bc91906101fe565b6100f9565b005b6100cb6101d2565b005b600047905090565b60008054906101000a900473ffffffffffffffffffffffffffffffffffffffff1681565b3373ffffffffffffffffffffffffffffffffffffffff1660008054906101000a900473ffffffffffffffffffffffffffffffffffffffff1673ffffffffffffffffffffffffffffffffffffffff1614610187576040517f08c379a000000000000000000000000000000000000000000000000000000000815260040161017e90610296565b60405180910390fd5b8173ffffffffffffffffffffffffffffffffffffffff166108fc829081150290604051600060405180830381858888f193505050501580156101cd573d6000803e3d6000fd5b505050565b565b6000813590506101e381610359565b92915050565b6000813590506101f881610370565b92915050565b6000806040838503121561021157600080fd5b600061021f858286016101d4565b9250506020610230858286016101e9565b9150509250929050565b610243816102e2565b82525050565b60006102566016836102d1565b915061026182610330565b602082019050919050565b61027581610326565b82525050565b6000602082019050610290600083018461023a565b92915050565b600060208201905081810360008301526102af81610249565b9050919050565b60006020820190506102cb600083018461026c565b92915050565b600082825260208201905092915050565b60006102ed82610306565b9050919050565b60006102ff82610306565b9050919050565b600073ffffffffffffffffffffffffffffffffffffffff82169050919050565b6000819050919050565b7f596f7520617265206e6f7420746865206f776e65722100000000000000000000600082015250565b610362816102f4565b811461036d57600080fd5b50565b61037981610326565b811461038457600080fd5b5056fea2646970667358221220e5e1e38eb4dce33c8270f34c21bd83f9f3449ac6415e7b0bbe857ed55290a77464736f6c63430008030033",
  "immutableReferences": {},
  "source": "//SPDX-License-Identifier: MIT\r\npragma solidity 0.8.3;\r\n\r\ncontract EtherWallet{\r\n\r\n    address public owner;\r\n\r\n    constructor() {\r\n        owner = msg.sender;\r\n    }\r\n\r\n    function deposit() payable public{\r\n        //no precisa de cdigo, apenas constar payable na assinatura\r\n    }\r\n\r\n    function send(address payable to, uint256 amount) public {\r\n        require(owner == msg.sender, \"You are not the owner!\");\r\n        to.transfer(amount);\r\n    }\r\n\r\n    function balanceOf() view public returns (uint256){\r\n        return address(this).balance;\r\n    }\r\n}",
  "sourcePath": "C:\\Users\\ITAUTEC\\Desktop\\REPOS\\EATTHEBLOCKS\\PROJETOS\\6-ether-wallet\\contracts\\EtherWallet.sol",
  "compiler": {
    "name": "solc",
    "version": "0.8.3+commit.8d00100c.Emscripten.clang"
  },
  "schemaVersion": "3.4.10",
  "updatedAt": "2022-12-06T13:50:15.395Z",
  "networkType": "ethereum",
  "devdoc": {
    "kind": "dev",
    "methods": {},
    "version": 1
  },
  "userdoc": {
    "kind": "user",
    "methods": {},
    "version": 1
  }
}